:020000000000fe
:020001000000fd
:020002000000fc
:020003000000fb
:020004000000fa
:020005000000f9
:020006000000f8
:020007000000f7
:020008000000f6
:020009000000f5
:02000a000000f4
:02000b000001f2
:02000c000001f1
:02000d000001f0
:02000e000001ef
:02000f000001ee
:020010000001ed
:020011000001ec
:020012000001eb
:020013000001ea
:020014000001e9
:020015000001e8
:020016000001e7
:020017000001e6
:020018000001e5
:020019000001e4
:02001a000001e3
:02001b000001e2
:02001c000001e1
:02001d000001e0
:02001e000001df
:02001f000002dd
:020020000002dc
:020021000002db
:020022000002da
:020023000002d9
:020024000002d8
:020025000002d7
:020026000002d6
:020027000002d5
:020028000002d4
:020029000002d3
:02002a000002d2
:02002b000002d1
:02002c000002d0
:02002d000002cf
:02002e000002ce
:02002f000002cd
:020030000002cc
:020031000002cb
:020032000002ca
:020033000002c9
:020034000003c7
:020035000003c6
:020036000003c5
:020037000003c4
:020038000003c3
:020039000003c2
:02003a000003c1
:02003b000003c0
:02003c000003bf
:02003d000003be
:02003e000003bd
:02003f000003bc
:020040000003bb
:020041000003ba
:020042000003b9
:020043000003b8
:020044000003b7
:020045000003b6
:020046000003b5
:020047000003b4
:020048000004b2
:020049000004b1
:02004a000004b0
:02004b000004af
:02004c000004ae
:02004d000004ad
:02004e000004ac
:02004f000004ab
:020050000004aa
:020051000004a9
:020052000004a8
:020053000004a7
:020054000004a6
:020055000004a5
:020056000004a4
:020057000004a3
:020058000004a2
:020059000004a1
:02005a000004a0
:02005b0000049f
:02005c0000059d
:02005d0000059c
:02005e0000059b
:02005f0000059a
:02006000000599
:02006100000598
:02006200000597
:02006300000596
:02006400000595
:02006500000594
:02006600000593
:02006700000592
:02006800000591
:02006900000590
:02006a0000058f
:02006b0000058e
:02006c0000058d
:02006d0000058c
:02006e0000058b
:02006f0000058a
:02007000000589
:02007100000687
:02007200000686
:02007300000685
:02007400000684
:02007500000683
:02007600000682
:02007700000681
:02007800000680
:0200790000067f
:02007a0000067e
:02007b0000067d
:02007c0000067c
:02007d0000067b
:02007e0000067a
:02007f00000679
:02008000000678
:02008100000677
:02008200000676
:02008300000675
:02008400000674
:02008500000772
:02008600000771
:02008700000770
:0200880000076f
:0200890000076e
:02008a0000076d
:02008b0000076c
:02008c0000076b
:02008d0000076a
:02008e00000769
:02008f00000768
:02009000000767
:02009100000766
:02009200000765
:02009300000764
:02009400000763
:02009500000762
:02009600000761
:02009700000760
:0200980000075f
:0200990000075e
:02009a0000085c
:02009b0000085b
:02009c0000085a
:02009d00000859
:02009e00000858
:02009f00000857
:0200a000000856
:0200a100000855
:0200a200000854
:0200a300000853
:0200a400000852
:0200a500000851
:0200a600000850
:0200a70000084f
:0200a80000084e
:0200a90000084d
:0200aa0000084c
:0200ab0000084b
:0200ac0000084a
:0200ad00000849
:0200ae00000947
:0200af00000946
:0200b000000945
:0200b100000944
:0200b200000943
:0200b300000942
:0200b400000941
:0200b500000940
:0200b60000093f
:0200b70000093e
:0200b80000093d
:0200b90000093c
:0200ba0000093b
:0200bb0000093a
:0200bc00000939
:0200bd00000938
:0200be00000937
:0200bf00000936
:0200c000000935
:0200c100000934
:0200c200000a32
:0200c300000a31
:0200c400000a30
:0200c500000a2f
:0200c600000a2e
:0200c700000a2d
:0200c800000a2c
:0200c900000a2b
:0200ca00000a2a
:0200cb00000a29
:0200cc00000a28
:0200cd00000a27
:0200ce00000a26
:0200cf00000a25
:0200d000000a24
:0200d100000a23
:0200d200000a22
:0200d300000a21
:0200d400000a20
:0200d500000a1f
:0200d600000a1e
:0200d700000b1c
:0200d800000b1b
:0200d900000b1a
:0200da00000b19
:0200db00000b18
:0200dc00000b17
:0200dd00000b16
:0200de00000b15
:0200df00000b14
:0200e000000b13
:0200e100000b12
:0200e200000b11
:0200e300000b10
:0200e400000b0f
:0200e500000b0e
:0200e600000b0d
:0200e700000b0c
:0200e800000b0b
:0200e900000b0a
:0200ea00000b09
:0200eb00000c07
:0200ec00000c06
:0200ed00000c05
:0200ee00000c04
:0200ef00000c03
:0200f000000c02
:0200f100000c01
:0200f200000c00
:0200f300000cff
:0200f400000cfe
:0200f500000cfd
:0200f600000cfc
:0200f700000cfb
:0200f800000cfa
:0200f900000cf9
:0200fa00000cf8
:0200fb00000cf7
:0200fc00000cf6
:0200fd00000cf5
:0200fe00000cf4
:0200ff00000cf3
:02010000000df0
:02010100000def
:02010200000dee
:02010300000ded
:02010400000dec
:02010500000deb
:02010600000dea
:02010700000de9
:02010800000de8
:02010900000de7
:02010a00000de6
:02010b00000de5
:02010c00000de4
:02010d00000de3
:02010e00000de2
:02010f00000de1
:02011000000de0
:02011100000ddf
:02011200000dde
:02011300000ddd
:02011400000edb
:02011500000eda
:02011600000ed9
:02011700000ed8
:02011800000ed7
:02011900000ed6
:02011a00000ed5
:02011b00000ed4
:02011c00000ed3
:02011d00000ed2
:02011e00000ed1
:02011f00000ed0
:02012000000ecf
:02012100000ece
:02012200000ecd
:02012300000ecc
:02012400000ecb
:02012500000eca
:02012600000ec9
:02012700000ec8
:02012800000ec7
:02012900000fc5
:02012a00000fc4
:02012b00000fc3
:02012c00000fc2
:02012d00000fc1
:02012e00000fc0
:02012f00000fbf
:02013000000fbe
:02013100000fbd
:02013200000fbc
:02013300000fbb
:02013400000fba
:02013500000fb9
:02013600000fb8
:02013700000fb7
:02013800000fb6
:02013900000fb5
:02013a00000fb4
:02013b00000fb3
:02013c00000fb2
:02013d000010b0
:02013e000010af
:02013f000010ae
:020140000010ad
:020141000010ac
:020142000010ab
:020143000010aa
:020144000010a9
:020145000010a8
:020146000010a7
:020147000010a6
:020148000010a5
:020149000010a4
:02014a000010a3
:02014b000010a2
:02014c000010a1
:02014d000010a0
:02014e0000109f
:02014f0000109e
:0201500000109d
:0201510000119b
:0201520000119a
:02015300001199
:02015400001198
:02015500001197
:02015600001196
:02015700001195
:02015800001194
:02015900001193
:02015a00001192
:02015b00001191
:02015c00001190
:02015d0000118f
:02015e0000118e
:02015f0000118d
:0201600000118c
:0201610000118b
:0201620000118a
:02016300001189
:02016400001188
:02016500001187
:02016600001285
:02016700001284
:02016800001283
:02016900001282
:02016a00001281
:02016b00001280
:02016c0000127f
:02016d0000127e
:02016e0000127d
:02016f0000127c
:0201700000127b
:0201710000127a
:02017200001279
:02017300001278
:02017400001277
:02017500001276
:02017600001275
:02017700001274
:02017800001273
:02017900001272
:02017a00001370
:02017b0000136f
:02017c0000136e
:02017d0000136d
:02017e0000136c
:02017f0000136b
:0201800000136a
:02018100001369
:02018200001368
:02018300001367
:02018400001366
:02018500001365
:02018600001364
:02018700001363
:02018800001362
:02018900001361
:02018a00001360
:02018b0000135f
:02018c0000135e
:02018d0000135d
:02018e0000135c
:02018f0000145a
:02019000001459
:02019100001458
:02019200001457
:02019300001456
:02019400001455
:02019500001454
:02019600001453
:02019700001452
:02019800001451
:02019900001450
:02019a0000144f
:02019b0000144e
:02019c0000144d
:02019d0000144c
:02019e0000144b
:02019f0000144a
:0201a000001449
:0201a100001448
:0201a200001447
:0201a300001545
:0201a400001544
:0201a500001543
:0201a600001542
:0201a700001541
:0201a800001540
:0201a90000153f
:0201aa0000153e
:0201ab0000153d
:0201ac0000153c
:0201ad0000153b
:0201ae0000153a
:0201af00001539
:0201b000001538
:0201b100001537
:0201b200001536
:0201b300001535
:0201b400001534
:0201b500001533
:0201b600001532
:0201b700001630
:0201b80000162f
:0201b90000162e
:0201ba0000162d
:0201bb0000162c
:0201bc0000162b
:0201bd0000162a
:0201be00001629
:0201bf00001628
:0201c000001627
:0201c100001626
:0201c200001625
:0201c300001624
:0201c400001623
:0201c500001622
:0201c600001621
:0201c700001620
:0201c80000161f
:0201c90000161e
:0201ca0000161d
:0201cb0000161c
:0201cc0000171a
:0201cd00001719
:0201ce00001718
:0201cf00001717
:0201d000001716
:0201d100001715
:0201d200001714
:0201d300001713
:0201d400001712
:0201d500001711
:0201d600001710
:0201d70000170f
:0201d80000170e
:0201d90000170d
:0201da0000170c
:0201db0000170b
:0201dc0000170a
:0201dd00001709
:0201de00001708
:0201df00001707
:0201e000001805
:0201e100001804
:0201e200001803
:0201e300001802
:0201e400001801
:0201e500001800
:0201e6000018ff
:0201e7000018fe
:0201e8000018fd
:0201e9000018fc
:0201ea000018fb
:0201eb000018fa
:0201ec000018f9
:0201ed000018f8
:0201ee000018f7
:0201ef000018f6
:0201f0000018f5
:0201f1000018f4
:0201f2000018f3
:0201f3000018f2
:0201f4000018f1
:0201f5000019ef
:0201f6000019ee
:0201f7000019ed
:0201f8000019ec
:0201f9000019eb
:0201fa000019ea
:0201fb000019e9
:0201fc000019e8
:0201fd000019e7
:0201fe000019e6
:0201ff000019e5
:020200000019e3
:020201000019e2
:020202000019e1
:020203000019e0
:020204000019df
:020205000019de
:020206000019dd
:020207000019dc
:020208000019db
:02020900001ad9
:02020a00001ad8
:02020b00001ad7
:02020c00001ad6
:02020d00001ad5
:02020e00001ad4
:02020f00001ad3
:02021000001ad2
:02021100001ad1
:02021200001ad0
:02021300001acf
:02021400001ace
:02021500001acd
:02021600001acc
:02021700001acb
:02021800001aca
:02021900001ac9
:02021a00001ac8
:02021b00001ac7
:02021c00001ac6
:02021d00001ac5
:02021e00001bc3
:02021f00001bc2
:02022000001bc1
:02022100001bc0
:02022200001bbf
:02022300001bbe
:02022400001bbd
:02022500001bbc
:02022600001bbb
:02022700001bba
:02022800001bb9
:02022900001bb8
:02022a00001bb7
:02022b00001bb6
:02022c00001bb5
:02022d00001bb4
:02022e00001bb3
:02022f00001bb2
:02023000001bb1
:02023100001bb0
:02023200001cae
:02023300001cad
:02023400001cac
:02023500001cab
:02023600001caa
:02023700001ca9
:02023800001ca8
:02023900001ca7
:02023a00001ca6
:02023b00001ca5
:02023c00001ca4
:02023d00001ca3
:02023e00001ca2
:02023f00001ca1
:02024000001ca0
:02024100001c9f
:02024200001c9e
:02024300001c9d
:02024400001c9c
:02024500001c9b
:02024600001c9a
:02024700001d98
:02024800001d97
:02024900001d96
:02024a00001d95
:02024b00001d94
:02024c00001d93
:02024d00001d92
:02024e00001d91
:02024f00001d90
:02025000001d8f
:02025100001d8e
:02025200001d8d
:02025300001d8c
:02025400001d8b
:02025500001d8a
:02025600001d89
:02025700001d88
:02025800001d87
:02025900001d86
:02025a00001d85
:02025b00001e83
:02025c00001e82
:02025d00001e81
:02025e00001e80
:02025f00001e7f
:02026000001e7e
:02026100001e7d
:02026200001e7c
:02026300001e7b
:02026400001e7a
:02026500001e79
:02026600001e78
:02026700001e77
:02026800001e76
:02026900001e75
:02026a00001e74
:02026b00001e73
:02026c00001e72
:02026d00001e71
:02026e00001e70
:02026f00001f6e
:02027000001f6d
:02027100001f6c
:02027200001f6b
:02027300001f6a
:02027400001f69
:02027500001f68
:02027600001f67
:02027700001f66
:02027800001f65
:02027900001f64
:02027a00001f63
:02027b00001f62
:02027c00001f61
:02027d00001f60
:02027e00001f5f
:02027f00001f5e
:02028000001f5d
:02028100001f5c
:02028200001f5b
:02028300001f5a
:02028400002058
:02028500002057
:02028600002056
:02028700002055
:02028800002054
:02028900002053
:02028a00002052
:02028b00002051
:02028c00002050
:02028d0000204f
:02028e0000204e
:02028f0000204d
:0202900000204c
:0202910000204b
:0202920000204a
:02029300002049
:02029400002048
:02029500002047
:02029600002046
:02029700002045
:02029800002143
:02029900002142
:02029a00002141
:02029b00002140
:02029c0000213f
:02029d0000213e
:02029e0000213d
:02029f0000213c
:0202a00000213b
:0202a10000213a
:0202a200002139
:0202a300002138
:0202a400002137
:0202a500002136
:0202a600002135
:0202a700002134
:0202a800002133
:0202a900002132
:0202aa00002131
:0202ab00002130
:0202ac0000212f
:0202ad0000222d
:0202ae0000222c
:0202af0000222b
:0202b00000222a
:0202b100002229
:0202b200002228
:0202b300002227
:0202b400002226
:0202b500002225
:0202b600002224
:0202b700002223
:0202b800002222
:0202b900002221
:0202ba00002220
:0202bb0000221f
:0202bc0000221e
:0202bd0000221d
:0202be0000221c
:0202bf0000221b
:0202c00000221a
:0202c100002318
:0202c200002317
:0202c300002316
:0202c400002315
:0202c500002314
:0202c600002313
:0202c700002312
:0202c800002311
:0202c900002310
:0202ca0000230f
:0202cb0000230e
:0202cc0000230d
:0202cd0000230c
:0202ce0000230b
:0202cf0000230a
:0202d000002309
:0202d100002308
:0202d200002307
:0202d300002306
:0202d400002305
:0202d500002304
:0202d600002402
:0202d700002401
:0202d800002400
:0202d9000024ff
:0202da000024fe
:0202db000024fd
:0202dc000024fc
:0202dd000024fb
:0202de000024fa
:0202df000024f9
:0202e0000024f8
:0202e1000024f7
:0202e2000024f6
:0202e3000024f5
:0202e4000024f4
:0202e5000024f3
:0202e6000024f2
:0202e7000024f1
:0202e8000024f0
:0202e9000024ef
:0202ea000025ed
:0202eb000025ec
:0202ec000025eb
:0202ed000025ea
:0202ee000025e9
:0202ef000025e8
:0202f0000025e7
:0202f1000025e6
:0202f2000025e5
:0202f3000025e4
:0202f4000025e3
:0202f5000025e2
:0202f6000025e1
:0202f7000025e0
:0202f8000025df
:0202f9000025de
:0202fa000025dd
:0202fb000025dc
:0202fc000025db
:0202fd000025da
:0202fe000025d9
:0202ff000026d7
:020300000026d5
:020301000026d4
:020302000026d3
:020303000026d2
:020304000026d1
:020305000026d0
:020306000026cf
:020307000026ce
:020308000026cd
:020309000026cc
:02030a000026cb
:02030b000026ca
:02030c000026c9
:02030d000026c8
:02030e000026c7
:02030f000026c6
:020310000026c5
:020311000026c4
:020312000026c3
:020313000027c1
:020314000027c0
:020315000027bf
:020316000027be
:020317000027bd
:020318000027bc
:020319000027bb
:02031a000027ba
:02031b000027b9
:02031c000027b8
:02031d000027b7
:02031e000027b6
:02031f000027b5
:020320000027b4
:020321000027b3
:020322000027b2
:020323000027b1
:020324000027b0
:020325000027af
:020326000027ae
:020327000027ad
:020328000028ab
:020329000028aa
:02032a000028a9
:02032b000028a8
:02032c000028a7
:02032d000028a6
:02032e000028a5
:02032f000028a4
:020330000028a3
:020331000028a2
:020332000028a1
:020333000028a0
:0203340000289f
:0203350000289e
:0203360000289d
:0203370000289c
:0203380000289b
:0203390000289a
:02033a00002899
:02033b00002898
:02033c00002996
:02033d00002995
:02033e00002994
:02033f00002993
:02034000002992
:02034100002991
:02034200002990
:0203430000298f
:0203440000298e
:0203450000298d
:0203460000298c
:0203470000298b
:0203480000298a
:02034900002989
:02034a00002988
:02034b00002987
:02034c00002986
:02034d00002985
:02034e00002984
:02034f00002983
:02035000002982
:02035100002a80
:02035200002a7f
:02035300002a7e
:02035400002a7d
:02035500002a7c
:02035600002a7b
:02035700002a7a
:02035800002a79
:02035900002a78
:02035a00002a77
:02035b00002a76
:02035c00002a75
:02035d00002a74
:02035e00002a73
:02035f00002a72
:02036000002a71
:02036100002a70
:02036200002a6f
:02036300002a6e
:02036400002a6d
:02036500002b6b
:02036600002b6a
:02036700002b69
:02036800002b68
:02036900002b67
:02036a00002b66
:02036b00002b65
:02036c00002b64
:02036d00002b63
:02036e00002b62
:02036f00002b61
:02037000002b60
:02037100002b5f
:02037200002b5e
:02037300002b5d
:02037400002b5c
:02037500002b5b
:02037600002b5a
:02037700002b59
:02037800002b58
:02037900002c56
:02037a00002c55
:02037b00002c54
:02037c00002c53
:02037d00002c52
:02037e00002c51
:02037f00002c50
:02038000002c4f
:02038100002c4e
:02038200002c4d
:02038300002c4c
:02038400002c4b
:02038500002c4a
:02038600002c49
:02038700002c48
:02038800002c47
:02038900002c46
:02038a00002c45
:02038b00002c44
:02038c00002c43
:02038d00002c42
:02038e00002d40
:02038f00002d3f
:02039000002d3e
:02039100002d3d
:02039200002d3c
:02039300002d3b
:02039400002d3a
:02039500002d39
:02039600002d38
:02039700002d37
:02039800002d36
:02039900002d35
:02039a00002d34
:02039b00002d33
:02039c00002d32
:02039d00002d31
:02039e00002d30
:02039f00002d2f
:0203a000002d2e
:0203a100002d2d
:0203a200002e2b
:0203a300002e2a
:0203a400002e29
:0203a500002e28
:0203a600002e27
:0203a700002e26
:0203a800002e25
:0203a900002e24
:0203aa00002e23
:0203ab00002e22
:0203ac00002e21
:0203ad00002e20
:0203ae00002e1f
:0203af00002e1e
:0203b000002e1d
:0203b100002e1c
:0203b200002e1b
:0203b300002e1a
:0203b400002e19
:0203b500002e18
:0203b600002e17
:0203b700002f15
:0203b800002f14
:0203b900002f13
:0203ba00002f12
:0203bb00002f11
:0203bc00002f10
:0203bd00002f0f
:0203be00002f0e
:0203bf00002f0d
:0203c000002f0c
:0203c100002f0b
:0203c200002f0a
:0203c300002f09
:0203c400002f08
:0203c500002f07
:0203c600002f06
:0203c700002f05
:0203c800002f04
:0203c900002f03
:0203ca00002f02
:0203cb00003000
:0203cc000030ff
:0203cd000030fe
:0203ce000030fd
:0203cf000030fc
:0203d0000030fb
:0203d1000030fa
:0203d2000030f9
:0203d3000030f8
:0203d4000030f7
:0203d5000030f6
:0203d6000030f5
:0203d7000030f4
:0203d8000030f3
:0203d9000030f2
:0203da000030f1
:0203db000030f0
:0203dc000030ef
:0203dd000030ee
:0203de000030ed
:0203df000030ec
:0203e0000031ea
:0203e1000031e9
:0203e2000031e8
:0203e3000031e7
:0203e4000031e6
:0203e5000031e5
:0203e6000031e4
:0203e7000031e3
:0203e8000031e2
:0203e9000031e1
:0203ea000031e0
:0203eb000031df
:0203ec000031de
:0203ed000031dd
:0203ee000031dc
:0203ef000031db
:0203f0000031da
:0203f1000031d9
:0203f2000031d8
:0203f3000031d7
:0203f4000032d5
:0203f5000032d4
:0203f6000032d3
:0203f7000032d2
:0203f8000032d1
:0203f9000032d0
:0203fa000032cf
:0203fb000032ce
:0203fc000032cd
:0203fd000032cc
:0203fe000032cb
:0203ff000032ca
:020400000032c8
:020401000032c7
:020402000032c6
:020403000032c5
:020404000032c4
:020405000032c3
:020406000032c2
:020407000032c1
:020408000032c0
:020409000033be
:02040a000033bd
:02040b000033bc
:02040c000033bb
:02040d000033ba
:02040e000033b9
:02040f000033b8
:020410000033b7
:020411000033b6
:020412000033b5
:020413000033b4
:020414000033b3
:020415000033b2
:020416000033b1
:020417000033b0
:020418000033af
:020419000033ae
:02041a000033ad
:02041b000033ac
:02041c000033ab
:02041d000034a9
:02041e000034a8
:02041f000034a7
:020420000034a6
:020421000034a5
:020422000034a4
:020423000034a3
:020424000034a2
:020425000034a1
:020426000034a0
:0204270000349f
:0204280000349e
:0204290000349d
:02042a0000349c
:02042b0000349b
:02042c0000349a
:02042d00003499
:02042e00003498
:02042f00003497
:02043000003496
:02043100003495
:02043200003593
:02043300003592
:02043400003591
:02043500003590
:0204360000358f
:0204370000358e
:0204380000358d
:0204390000358c
:02043a0000358b
:02043b0000358a
:02043c00003589
:02043d00003588
:02043e00003587
:02043f00003586
:02044000003585
:02044100003584
:02044200003583
:02044300003582
:02044400003581
:02044500003580
:0204460000357f
:0204470000367d
:0204480000367c
:0204490000367b
:02044a0000367a
:02044b00003679
:02044c00003678
:02044d00003677
:02044e00003676
:02044f00003675
:02045000003674
:02045100003673
:02045200003672
:02045300003671
:02045400003670
:0204550000366f
:0204560000366e
:0204570000366d
:0204580000366c
:0204590000366b
:02045a0000366a
:02045b00003768
:02045c00003767
:02045d00003766
:02045e00003765
:02045f00003764
:02046000003763
:02046100003762
:02046200003761
:02046300003760
:0204640000375f
:0204650000375e
:0204660000375d
:0204670000375c
:0204680000375b
:0204690000375a
:02046a00003759
:02046b00003758
:02046c00003757
:02046d00003756
:02046e00003755
:02046f00003754
:02047000003852
:02047100003851
:02047200003850
:0204730000384f
:0204740000384e
:0204750000384d
:0204760000384c
:0204770000384b
:0204780000384a
:02047900003849
:02047a00003848
:02047b00003847
:02047c00003846
:02047d00003845
:02047e00003844
:02047f00003843
:02048000003842
:02048100003841
:02048200003840
:0204830000383f
:0204840000393d
:0204850000393c
:0204860000393b
:0204870000393a
:02048800003939
:02048900003938
:02048a00003937
:02048b00003936
:02048c00003935
:02048d00003934
:02048e00003933
:02048f00003932
:02049000003931
:02049100003930
:0204920000392f
:0204930000392e
:0204940000392d
:0204950000392c
:0204960000392b
:0204970000392a
:02049800003929
:02049900003a27
:02049a00003a26
:02049b00003a25
:02049c00003a24
:02049d00003a23
:02049e00003a22
:02049f00003a21
:0204a000003a20
:0204a100003a1f
:0204a200003a1e
:0204a300003a1d
:0204a400003a1c
:0204a500003a1b
:0204a600003a1a
:0204a700003a19
:0204a800003a18
:0204a900003a17
:0204aa00003a16
:0204ab00003a15
:0204ac00003a14
:0204ad00003b12
:0204ae00003b11
:0204af00003b10
:0204b000003b0f
:0204b100003b0e
:0204b200003b0d
:0204b300003b0c
:0204b400003b0b
:0204b500003b0a
:0204b600003b09
:0204b700003b08
:0204b800003b07
:0204b900003b06
:0204ba00003b05
:0204bb00003b04
:0204bc00003b03
:0204bd00003b02
:0204be00003b01
:0204bf00003b00
:0204c000003bff
:0204c100003bfe
:0204c200003cfc
:0204c300003cfb
:0204c400003cfa
:0204c500003cf9
:0204c600003cf8
:0204c700003cf7
:0204c800003cf6
:0204c900003cf5
:0204ca00003cf4
:0204cb00003cf3
:0204cc00003cf2
:0204cd00003cf1
:0204ce00003cf0
:0204cf00003cef
:0204d000003cee
:0204d100003ced
:0204d200003cec
:0204d300003ceb
:0204d400003cea
:0204d500003ce9
:0204d600003de7
:0204d700003de6
:0204d800003de5
:0204d900003de4
:0204da00003de3
:0204db00003de2
:0204dc00003de1
:0204dd00003de0
:0204de00003ddf
:0204df00003dde
:0204e000003ddd
:0204e100003ddc
:0204e200003ddb
:0204e300003dda
:0204e400003dd9
:0204e500003dd8
:0204e600003dd7
:0204e700003dd6
:0204e800003dd5
:0204e900003dd4
:0204ea00003dd3
:0204eb00003ed1
:0204ec00003ed0
:0204ed00003ecf
:0204ee00003ece
:0204ef00003ecd
:0204f000003ecc
:0204f100003ecb
:0204f200003eca
:0204f300003ec9
:0204f400003ec8
:0204f500003ec7
:0204f600003ec6
:0204f700003ec5
:0204f800003ec4
:0204f900003ec3
:0204fa00003ec2
:0204fb00003ec1
:0204fc00003ec0
:0204fd00003ebf
:0204fe00003ebe
:0204ff00003fbc
:02050000003fba
:02050100003fb9
:02050200003fb8
:02050300003fb7
:02050400003fb6
:02050500003fb5
:02050600003fb4
:02050700003fb3
:02050800003fb2
:02050900003fb1
:02050a00003fb0
:02050b00003faf
:02050c00003fae
:02050d00003fad
:02050e00003fac
:02050f00003fab
:02051000003faa
:02051100003fa9
:02051200003fa8
:02051300003fa7
:020514000040a5
:020515000040a4
:020516000040a3
:020517000040a2
:020518000040a1
:020519000040a0
:02051a0000409f
:02051b0000409e
:02051c0000409d
:02051d0000409c
:02051e0000409b
:02051f0000409a
:02052000004099
:02052100004098
:02052200004097
:02052300004096
:02052400004095
:02052500004094
:02052600004093
:02052700004092
:02052800004091
:0205290000418f
:02052a0000418e
:02052b0000418d
:02052c0000418c
:02052d0000418b
:02052e0000418a
:02052f00004189
:02053000004188
:02053100004187
:02053200004186
:02053300004185
:02053400004184
:02053500004183
:02053600004182
:02053700004181
:02053800004180
:0205390000417f
:02053a0000417e
:02053b0000417d
:02053c0000417c
:02053d0000427a
:02053e00004279
:02053f00004278
:02054000004277
:02054100004276
:02054200004275
:02054300004274
:02054400004273
:02054500004272
:02054600004271
:02054700004270
:0205480000426f
:0205490000426e
:02054a0000426d
:02054b0000426c
:02054c0000426b
:02054d0000426a
:02054e00004269
:02054f00004268
:02055000004267
:02055100004266
:02055200004364
:02055300004363
:02055400004362
:02055500004361
:02055600004360
:0205570000435f
:0205580000435e
:0205590000435d
:02055a0000435c
:02055b0000435b
:02055c0000435a
:02055d00004359
:02055e00004358
:02055f00004357
:02056000004356
:02056100004355
:02056200004354
:02056300004353
:02056400004352
:02056500004351
:0205660000444f
:0205670000444e
:0205680000444d
:0205690000444c
:02056a0000444b
:02056b0000444a
:02056c00004449
:02056d00004448
:02056e00004447
:02056f00004446
:02057000004445
:02057100004444
:02057200004443
:02057300004442
:02057400004441
:02057500004440
:0205760000443f
:0205770000443e
:0205780000443d
:0205790000443c
:02057a0000443b
:02057b00004539
:02057c00004538
:02057d00004537
:02057e00004536
:02057f00004535
:02058000004534
:02058100004533
:02058200004532
:02058300004531
:02058400004530
:0205850000452f
:0205860000452e
:0205870000452d
:0205880000452c
:0205890000452b
:02058a0000452a
:02058b00004529
:02058c00004528
:02058d00004527
:02058e00004526
:02058f00004525
:02059000004623
:02059100004622
:02059200004621
:02059300004620
:0205940000461f
:0205950000461e
:0205960000461d
:0205970000461c
:0205980000461b
:0205990000461a
:02059a00004619
:02059b00004618
:02059c00004617
:02059d00004616
:02059e00004615
:02059f00004614
:0205a000004613
:0205a100004612
:0205a200004611
:0205a300004610
:0205a40000470e
:0205a50000470d
:0205a60000470c
:0205a70000470b
:0205a80000470a
:0205a900004709
:0205aa00004708
:0205ab00004707
:0205ac00004706
:0205ad00004705
:0205ae00004704
:0205af00004703
:0205b000004702
:0205b100004701
:0205b200004700
:0205b3000047ff
:0205b4000047fe
:0205b5000047fd
:0205b6000047fc
:0205b7000047fb
:0205b8000047fa
:0205b9000048f8
:0205ba000048f7
:0205bb000048f6
:0205bc000048f5
:0205bd000048f4
:0205be000048f3
:0205bf000048f2
:0205c0000048f1
:0205c1000048f0
:0205c2000048ef
:0205c3000048ee
:0205c4000048ed
:0205c5000048ec
:0205c6000048eb
:0205c7000048ea
:0205c8000048e9
:0205c9000048e8
:0205ca000048e7
:0205cb000048e6
:0205cc000048e5
:0205cd000049e3
:0205ce000049e2
:0205cf000049e1
:0205d0000049e0
:0205d1000049df
:0205d2000049de
:0205d3000049dd
:0205d4000049dc
:0205d5000049db
:0205d6000049da
:0205d7000049d9
:0205d8000049d8
:0205d9000049d7
:0205da000049d6
:0205db000049d5
:0205dc000049d4
:0205dd000049d3
:0205de000049d2
:0205df000049d1
:0205e0000049d0
:0205e1000049cf
:0205e200004acd
:0205e300004acc
:0205e400004acb
:0205e500004aca
:0205e600004ac9
:0205e700004ac8
:0205e800004ac7
:0205e900004ac6
:0205ea00004ac5
:0205eb00004ac4
:0205ec00004ac3
:0205ed00004ac2
:0205ee00004ac1
:0205ef00004ac0
:0205f000004abf
:0205f100004abe
:0205f200004abd
:0205f300004abc
:0205f400004abb
:0205f500004aba
:0205f600004ab9
:0205f700004bb7
:0205f800004bb6
:0205f900004bb5
:0205fa00004bb4
:0205fb00004bb3
:0205fc00004bb2
:0205fd00004bb1
:0205fe00004bb0
:0205ff00004baf
:02060000004bad
:02060100004bac
:02060200004bab
:02060300004baa
:02060400004ba9
:02060500004ba8
:02060600004ba7
:02060700004ba6
:02060800004ba5
:02060900004ba4
:02060a00004ba3
:02060b00004ca1
:02060c00004ca0
:02060d00004c9f
:02060e00004c9e
:02060f00004c9d
:02061000004c9c
:02061100004c9b
:02061200004c9a
:02061300004c99
:02061400004c98
:02061500004c97
:02061600004c96
:02061700004c95
:02061800004c94
:02061900004c93
:02061a00004c92
:02061b00004c91
:02061c00004c90
:02061d00004c8f
:02061e00004c8e
:02061f00004c8d
:02062000004d8b
:02062100004d8a
:02062200004d89
:02062300004d88
:02062400004d87
:02062500004d86
:02062600004d85
:02062700004d84
:02062800004d83
:02062900004d82
:02062a00004d81
:02062b00004d80
:02062c00004d7f
:02062d00004d7e
:02062e00004d7d
:02062f00004d7c
:02063000004d7b
:02063100004d7a
:02063200004d79
:02063300004d78
:02063400004d77
:02063500004e75
:02063600004e74
:02063700004e73
:02063800004e72
:02063900004e71
:02063a00004e70
:02063b00004e6f
:02063c00004e6e
:02063d00004e6d
:02063e00004e6c
:02063f00004e6b
:02064000004e6a
:02064100004e69
:02064200004e68
:02064300004e67
:02064400004e66
:02064500004e65
:02064600004e64
:02064700004e63
:02064800004e62
:02064900004f60
:02064a00004f5f
:02064b00004f5e
:02064c00004f5d
:02064d00004f5c
:02064e00004f5b
:02064f00004f5a
:02065000004f59
:02065100004f58
:02065200004f57
:02065300004f56
:02065400004f55
:02065500004f54
:02065600004f53
:02065700004f52
:02065800004f51
:02065900004f50
:02065a00004f4f
:02065b00004f4e
:02065c00004f4d
:02065d00004f4c
:02065e0000504a
:02065f00005049
:02066000005048
:02066100005047
:02066200005046
:02066300005045
:02066400005044
:02066500005043
:02066600005042
:02066700005041
:02066800005040
:0206690000503f
:02066a0000503e
:02066b0000503d
:02066c0000503c
:02066d0000503b
:02066e0000503a
:02066f00005039
:02067000005038
:02067100005037
:02067200005036
:02067300005134
:02067400005133
:02067500005132
:02067600005131
:02067700005130
:0206780000512f
:0206790000512e
:02067a0000512d
:02067b0000512c
:02067c0000512b
:02067d0000512a
:02067e00005129
:02067f00005128
:02068000005127
:02068100005126
:02068200005125
:02068300005124
:02068400005123
:02068500005122
:02068600005121
:0206870000521f
:0206880000521e
:0206890000521d
:02068a0000521c
:02068b0000521b
:02068c0000521a
:02068d00005219
:02068e00005218
:02068f00005217
:02069000005216
:02069100005215
:02069200005214
:02069300005213
:02069400005212
:02069500005211
:02069600005210
:0206970000520f
:0206980000520e
:0206990000520d
:02069a0000520c
:02069b0000520b
:02069c00005309
:02069d00005308
:02069e00005307
:02069f00005306
:0206a000005305
:0206a100005304
:0206a200005303
:0206a300005302
:0206a400005301
:0206a500005300
:0206a6000053ff
:0206a7000053fe
:0206a8000053fd
:0206a9000053fc
:0206aa000053fb
:0206ab000053fa
:0206ac000053f9
:0206ad000053f8
:0206ae000053f7
:0206af000053f6
:0206b0000053f5
:0206b1000054f3
:0206b2000054f2
:0206b3000054f1
:0206b4000054f0
:0206b5000054ef
:0206b6000054ee
:0206b7000054ed
:0206b8000054ec
:0206b9000054eb
:0206ba000054ea
:0206bb000054e9
:0206bc000054e8
:0206bd000054e7
:0206be000054e6
:0206bf000054e5
:0206c0000054e4
:0206c1000054e3
:0206c2000054e2
:0206c3000054e1
:0206c4000054e0
:0206c5000055de
:0206c6000055dd
:0206c7000055dc
:0206c8000055db
:0206c9000055da
:0206ca000055d9
:0206cb000055d8
:0206cc000055d7
:0206cd000055d6
:0206ce000055d5
:0206cf000055d4
:0206d0000055d3
:0206d1000055d2
:0206d2000055d1
:0206d3000055d0
:0206d4000055cf
:0206d5000055ce
:0206d6000055cd
:0206d7000055cc
:0206d8000055cb
:0206d9000055ca
:0206da000056c8
:0206db000056c7
:0206dc000056c6
:0206dd000056c5
:0206de000056c4
:0206df000056c3
:0206e0000056c2
:0206e1000056c1
:0206e2000056c0
:0206e3000056bf
:0206e4000056be
:0206e5000056bd
:0206e6000056bc
:0206e7000056bb
:0206e8000056ba
:0206e9000056b9
:0206ea000056b8
:0206eb000056b7
:0206ec000056b6
:0206ed000056b5
:0206ee000056b4
:0206ef000057b2
:0206f0000057b1
:0206f1000057b0
:0206f2000057af
:0206f3000057ae
:0206f4000057ad
:0206f5000057ac
:0206f6000057ab
:0206f7000057aa
:0206f8000057a9
:0206f9000057a8
:0206fa000057a7
:0206fb000057a6
:0206fc000057a5
:0206fd000057a4
:0206fe000057a3
:0206ff000057a2
:020700000057a0
:0207010000579f
:0207020000579e
:0207030000589c
:0207040000589b
:0207050000589a
:02070600005899
:02070700005898
:02070800005897
:02070900005896
:02070a00005895
:02070b00005894
:02070c00005893
:02070d00005892
:02070e00005891
:02070f00005890
:0207100000588f
:0207110000588e
:0207120000588d
:0207130000588c
:0207140000588b
:0207150000588a
:02071600005889
:02071700005888
:02071800005986
:02071900005985
:02071a00005984
:02071b00005983
:02071c00005982
:02071d00005981
:02071e00005980
:02071f0000597f
:0207200000597e
:0207210000597d
:0207220000597c
:0207230000597b
:0207240000597a
:02072500005979
:02072600005978
:02072700005977
:02072800005976
:02072900005975
:02072a00005974
:02072b00005973
:02072c00005972
:02072d00005a70
:02072e00005a6f
:02072f00005a6e
:02073000005a6d
:02073100005a6c
:02073200005a6b
:02073300005a6a
:02073400005a69
:02073500005a68
:02073600005a67
:02073700005a66
:02073800005a65
:02073900005a64
:02073a00005a63
:02073b00005a62
:02073c00005a61
:02073d00005a60
:02073e00005a5f
:02073f00005a5e
:02074000005a5d
:02074100005a5c
:02074200005b5a
:02074300005b59
:02074400005b58
:02074500005b57
:02074600005b56
:02074700005b55
:02074800005b54
:02074900005b53
:02074a00005b52
:02074b00005b51
:02074c00005b50
:02074d00005b4f
:02074e00005b4e
:02074f00005b4d
:02075000005b4c
:02075100005b4b
:02075200005b4a
:02075300005b49
:02075400005b48
:02075500005b47
:02075600005c45
:02075700005c44
:02075800005c43
:02075900005c42
:02075a00005c41
:02075b00005c40
:02075c00005c3f
:02075d00005c3e
:02075e00005c3d
:02075f00005c3c
:02076000005c3b
:02076100005c3a
:02076200005c39
:02076300005c38
:02076400005c37
:02076500005c36
:02076600005c35
:02076700005c34
:02076800005c33
:02076900005c32
:02076a00005c31
:02076b00005d2f
:02076c00005d2e
:02076d00005d2d
:02076e00005d2c
:02076f00005d2b
:02077000005d2a
:02077100005d29
:02077200005d28
:02077300005d27
:02077400005d26
:02077500005d25
:02077600005d24
:02077700005d23
:02077800005d22
:02077900005d21
:02077a00005d20
:02077b00005d1f
:02077c00005d1e
:02077d00005d1d
:02077e00005d1c
:02077f00005d1b
:02078000005e19
:02078100005e18
:02078200005e17
:02078300005e16
:02078400005e15
:02078500005e14
:02078600005e13
:02078700005e12
:02078800005e11
:02078900005e10
:02078a00005e0f
:02078b00005e0e
:02078c00005e0d
:02078d00005e0c
:02078e00005e0b
:02078f00005e0a
:02079000005e09
:02079100005e08
:02079200005e07
:02079300005e06
:02079400005e05
:02079500005f03
:02079600005f02
:02079700005f01
:02079800005f00
:02079900005fff
:02079a00005ffe
:02079b00005ffd
:02079c00005ffc
:02079d00005ffb
:02079e00005ffa
:02079f00005ff9
:0207a000005ff8
:0207a100005ff7
:0207a200005ff6
:0207a300005ff5
:0207a400005ff4
:0207a500005ff3
:0207a600005ff2
:0207a700005ff1
:0207a800005ff0
:0207a9000060ee
:0207aa000060ed
:0207ab000060ec
:0207ac000060eb
:0207ad000060ea
:0207ae000060e9
:0207af000060e8
:0207b0000060e7
:0207b1000060e6
:0207b2000060e5
:0207b3000060e4
:0207b4000060e3
:0207b5000060e2
:0207b6000060e1
:0207b7000060e0
:0207b8000060df
:0207b9000060de
:0207ba000060dd
:0207bb000060dc
:0207bc000060db
:0207bd000060da
:0207be000061d8
:0207bf000061d7
:0207c0000061d6
:0207c1000061d5
:0207c2000061d4
:0207c3000061d3
:0207c4000061d2
:0207c5000061d1
:0207c6000061d0
:0207c7000061cf
:0207c8000061ce
:0207c9000061cd
:0207ca000061cc
:0207cb000061cb
:0207cc000061ca
:0207cd000061c9
:0207ce000061c8
:0207cf000061c7
:0207d0000061c6
:0207d1000061c5
:0207d2000061c4
:0207d3000062c2
:0207d4000062c1
:0207d5000062c0
:0207d6000062bf
:0207d7000062be
:0207d8000062bd
:0207d9000062bc
:0207da000062bb
:0207db000062ba
:0207dc000062b9
:0207dd000062b8
:0207de000062b7
:0207df000062b6
:0207e0000062b5
:0207e1000062b4
:0207e2000062b3
:0207e3000062b2
:0207e4000062b1
:0207e5000062b0
:0207e6000062af
:0207e7000062ae
:0207e8000063ac
:0207e9000063ab
:0207ea000063aa
:0207eb000063a9
:0207ec000063a8
:0207ed000063a7
:0207ee000063a6
:0207ef000063a5
:0207f0000063a4
:0207f1000063a3
:0207f2000063a2
:0207f3000063a1
:0207f4000063a0
:0207f50000639f
:0207f60000639e
:0207f70000639d
:0207f80000639c
:0207f90000639b
:0207fa0000639a
:0207fb00006399
:0207fc00006398
:0207fd00006496
:0207fe00006495
:0207ff00006494
:02080000006492
:02080100006491
:02080200006490
:0208030000648f
:0208040000648e
:0208050000648d
:0208060000648c
:0208070000648b
:0208080000648a
:02080900006489
:02080a00006488
:02080b00006487
:02080c00006486
:02080d00006485
:02080e00006484
:02080f00006483
:02081000006482
:02081100006580
:0208120000657f
:0208130000657e
:0208140000657d
:0208150000657c
:0208160000657b
:0208170000657a
:02081800006579
:02081900006578
:02081a00006577
:02081b00006576
:02081c00006575
:02081d00006574
:02081e00006573
:02081f00006572
:02082000006571
:02082100006570
:0208220000656f
:0208230000656e
:0208240000656d
:0208250000656c
:0208260000666a
:02082700006669
:02082800006668
:02082900006667
:02082a00006666
:02082b00006665
:02082c00006664
:02082d00006663
:02082e00006662
:02082f00006661
:02083000006660
:0208310000665f
:0208320000665e
:0208330000665d
:0208340000665c
:0208350000665b
:0208360000665a
:02083700006659
:02083800006658
:02083900006657
:02083a00006656
:02083b00006754
:02083c00006753
:02083d00006752
:02083e00006751
:02083f00006750
:0208400000674f
:0208410000674e
:0208420000674d
:0208430000674c
:0208440000674b
:0208450000674a
:02084600006749
:02084700006748
:02084800006747
:02084900006746
:02084a00006745
:02084b00006744
:02084c00006743
:02084d00006742
:02084e00006741
:02084f00006740
:0208500000683e
:0208510000683d
:0208520000683c
:0208530000683b
:0208540000683a
:02085500006839
:02085600006838
:02085700006837
:02085800006836
:02085900006835
:02085a00006834
:02085b00006833
:02085c00006832
:02085d00006831
:02085e00006830
:02085f0000682f
:0208600000682e
:0208610000682d
:0208620000682c
:0208630000682b
:0208640000682a
:02086500006928
:02086600006927
:02086700006926
:02086800006925
:02086900006924
:02086a00006923
:02086b00006922
:02086c00006921
:02086d00006920
:02086e0000691f
:02086f0000691e
:0208700000691d
:0208710000691c
:0208720000691b
:0208730000691a
:02087400006919
:02087500006918
:02087600006917
:02087700006916
:02087800006915
:02087900006914
:02087a00006a12
:02087b00006a11
:02087c00006a10
:02087d00006a0f
:02087e00006a0e
:02087f00006a0d
:02088000006a0c
:02088100006a0b
:02088200006a0a
:02088300006a09
:02088400006a08
:02088500006a07
:02088600006a06
:02088700006a05
:02088800006a04
:02088900006a03
:02088a00006a02
:02088b00006a01
:02088c00006a00
:02088d00006aff
:02088e00006bfd
:02088f00006bfc
:02089000006bfb
:02089100006bfa
:02089200006bf9
:02089300006bf8
:02089400006bf7
:02089500006bf6
:02089600006bf5
:02089700006bf4
:02089800006bf3
:02089900006bf2
:02089a00006bf1
:02089b00006bf0
:02089c00006bef
:02089d00006bee
:02089e00006bed
:02089f00006bec
:0208a000006beb
:0208a100006bea
:0208a200006be9
:0208a300006ce7
:0208a400006ce6
:0208a500006ce5
:0208a600006ce4
:0208a700006ce3
:0208a800006ce2
:0208a900006ce1
:0208aa00006ce0
:0208ab00006cdf
:0208ac00006cde
:0208ad00006cdd
:0208ae00006cdc
:0208af00006cdb
:0208b000006cda
:0208b100006cd9
:0208b200006cd8
:0208b300006cd7
:0208b400006cd6
:0208b500006cd5
:0208b600006cd4
:0208b700006cd3
:0208b800006dd1
:0208b900006dd0
:0208ba00006dcf
:0208bb00006dce
:0208bc00006dcd
:0208bd00006dcc
:0208be00006dcb
:0208bf00006dca
:0208c000006dc9
:0208c100006dc8
:0208c200006dc7
:0208c300006dc6
:0208c400006dc5
:0208c500006dc4
:0208c600006dc3
:0208c700006dc2
:0208c800006dc1
:0208c900006dc0
:0208ca00006dbf
:0208cb00006dbe
:0208cc00006dbd
:0208cd00006ebb
:0208ce00006eba
:0208cf00006eb9
:0208d000006eb8
:0208d100006eb7
:0208d200006eb6
:0208d300006eb5
:0208d400006eb4
:0208d500006eb3
:0208d600006eb2
:0208d700006eb1
:0208d800006eb0
:0208d900006eaf
:0208da00006eae
:0208db00006ead
:0208dc00006eac
:0208dd00006eab
:0208de00006eaa
:0208df00006ea9
:0208e000006ea8
:0208e100006ea7
:0208e200006fa5
:0208e300006fa4
:0208e400006fa3
:0208e500006fa2
:0208e600006fa1
:0208e700006fa0
:0208e800006f9f
:0208e900006f9e
:0208ea00006f9d
:0208eb00006f9c
:0208ec00006f9b
:0208ed00006f9a
:0208ee00006f99
:0208ef00006f98
:0208f000006f97
:0208f100006f96
:0208f200006f95
:0208f300006f94
:0208f400006f93
:0208f500006f92
:0208f600006f91
:0208f70000708f
:0208f80000708e
:0208f90000708d
:0208fa0000708c
:0208fb0000708b
:0208fc0000708a
:0208fd00007089
:0208fe00007088
:0208ff00007087
:02090000007085
:02090100007084
:02090200007083
:02090300007082
:02090400007081
:02090500007080
:0209060000707f
:0209070000707e
:0209080000707d
:0209090000707c
:02090a0000707b
:02090b0000707a
:02090c00007178
:02090d00007177
:02090e00007176
:02090f00007175
:02091000007174
:02091100007173
:02091200007172
:02091300007171
:02091400007170
:0209150000716f
:0209160000716e
:0209170000716d
:0209180000716c
:0209190000716b
:02091a0000716a
:02091b00007169
:02091c00007168
:02091d00007167
:02091e00007166
:02091f00007165
:02092000007164
:02092100007262
:02092200007261
:02092300007260
:0209240000725f
:0209250000725e
:0209260000725d
:0209270000725c
:0209280000725b
:0209290000725a
:02092a00007259
:02092b00007258
:02092c00007257
:02092d00007256
:02092e00007255
:02092f00007254
:02093000007253
:02093100007252
:02093200007251
:02093300007250
:0209340000724f
:0209350000724e
:0209360000734c
:0209370000734b
:0209380000734a
:02093900007349
:02093a00007348
:02093b00007347
:02093c00007346
:02093d00007345
:02093e00007344
:02093f00007343
:02094000007342
:02094100007341
:02094200007340
:0209430000733f
:0209440000733e
:0209450000733d
:0209460000733c
:0209470000733b
:0209480000733a
:02094900007339
:02094a00007338
:02094b00007436
:02094c00007435
:02094d00007434
:02094e00007433
:02094f00007432
:02095000007431
:02095100007430
:0209520000742f
:0209530000742e
:0209540000742d
:0209550000742c
:0209560000742b
:0209570000742a
:02095800007429
:02095900007428
:02095a00007427
:02095b00007426
:02095c00007425
:02095d00007424
:02095e00007423
:02095f00007422
:02096000007520
:0209610000751f
:0209620000751e
:0209630000751d
:0209640000751c
:0209650000751b
:0209660000751a
:02096700007519
:02096800007518
:02096900007517
:02096a00007516
:02096b00007515
:02096c00007514
:02096d00007513
:02096e00007512
:02096f00007511
:02097000007510
:0209710000750f
:0209720000750e
:0209730000750d
:0209740000750c
:0209750000760a
:02097600007609
:02097700007608
:02097800007607
:02097900007606
:02097a00007605
:02097b00007604
:02097c00007603
:02097d00007602
:02097e00007601
:02097f00007600
:020980000076ff
:020981000076fe
:020982000076fd
:020983000076fc
:020984000076fb
:020985000076fa
:020986000076f9
:020987000076f8
:020988000076f7
:020989000076f6
:02098a000077f4
:02098b000077f3
:02098c000077f2
:02098d000077f1
:02098e000077f0
:02098f000077ef
:020990000077ee
:020991000077ed
:020992000077ec
:020993000077eb
:020994000077ea
:020995000077e9
:020996000077e8
:020997000077e7
:020998000077e6
:020999000077e5
:02099a000077e4
:02099b000077e3
:02099c000077e2
:02099d000077e1
:02099e000078df
:02099f000078de
:0209a0000078dd
:0209a1000078dc
:0209a2000078db
:0209a3000078da
:0209a4000078d9
:0209a5000078d8
:0209a6000078d7
:0209a7000078d6
:0209a8000078d5
:0209a9000078d4
:0209aa000078d3
:0209ab000078d2
:0209ac000078d1
:0209ad000078d0
:0209ae000078cf
:0209af000078ce
:0209b0000078cd
:0209b1000078cc
:0209b2000078cb
:0209b3000079c9
:0209b4000079c8
:0209b5000079c7
:0209b6000079c6
:0209b7000079c5
:0209b8000079c4
:0209b9000079c3
:0209ba000079c2
:0209bb000079c1
:0209bc000079c0
:0209bd000079bf
:0209be000079be
:0209bf000079bd
:0209c0000079bc
:0209c1000079bb
:0209c2000079ba
:0209c3000079b9
:0209c4000079b8
:0209c5000079b7
:0209c6000079b6
:0209c7000079b5
:0209c8000079b4
:0209c900007ab2
:0209ca00007ab1
:0209cb00007ab0
:0209cc00007aaf
:0209cd00007aae
:0209ce00007aad
:0209cf00007aac
:0209d000007aab
:0209d100007aaa
:0209d200007aa9
:0209d300007aa8
:0209d400007aa7
:0209d500007aa6
:0209d600007aa5
:0209d700007aa4
:0209d800007aa3
:0209d900007aa2
:0209da00007aa1
:0209db00007aa0
:0209dc00007a9f
:0209dd00007a9e
:0209de00007b9c
:0209df00007b9b
:0209e000007b9a
:0209e100007b99
:0209e200007b98
:0209e300007b97
:0209e400007b96
:0209e500007b95
:0209e600007b94
:0209e700007b93
:0209e800007b92
:0209e900007b91
:0209ea00007b90
:0209eb00007b8f
:0209ec00007b8e
:0209ed00007b8d
:0209ee00007b8c
:0209ef00007b8b
:0209f000007b8a
:0209f100007b89
:0209f200007b88
:0209f300007c86
:0209f400007c85
:0209f500007c84
:0209f600007c83
:0209f700007c82
:0209f800007c81
:0209f900007c80
:0209fa00007c7f
:0209fb00007c7e
:0209fc00007c7d
:0209fd00007c7c
:0209fe00007c7b
:0209ff00007c7a
:020a0000007c78
:020a0100007c77
:020a0200007c76
:020a0300007c75
:020a0400007c74
:020a0500007c73
:020a0600007c72
:020a0700007c71
:020a0800007d6f
:020a0900007d6e
:020a0a00007d6d
:020a0b00007d6c
:020a0c00007d6b
:020a0d00007d6a
:020a0e00007d69
:020a0f00007d68
:020a1000007d67
:020a1100007d66
:020a1200007d65
:020a1300007d64
:020a1400007d63
:020a1500007d62
:020a1600007d61
:020a1700007d60
:020a1800007d5f
:020a1900007d5e
:020a1a00007d5d
:020a1b00007d5c
:020a1c00007d5b
:020a1d00007e59
:020a1e00007e58
:020a1f00007e57
:020a2000007e56
:020a2100007e55
:020a2200007e54
:020a2300007e53
:020a2400007e52
:020a2500007e51
:020a2600007e50
:020a2700007e4f
:020a2800007e4e
:020a2900007e4d
:020a2a00007e4c
:020a2b00007e4b
:020a2c00007e4a
:020a2d00007e49
:020a2e00007e48
:020a2f00007e47
:020a3000007e46
:020a3100007e45
:020a3200007f43
:020a3300007f42
:020a3400007f41
:020a3500007f40
:020a3600007f3f
:020a3700007f3e
:020a3800007f3d
:020a3900007f3c
:020a3a00007f3b
:020a3b00007f3a
:020a3c00007f39
:020a3d00007f38
:020a3e00007f37
:020a3f00007f36
:020a4000007f35
:020a4100007f34
:020a4200007f33
:020a4300007f32
:020a4400007f31
:020a4500007f30
:020a4600007f2f
:020a470000802d
:020a480000802c
:020a490000802b
:020a4a0000802a
:020a4b00008029
:020a4c00008028
:020a4d00008027
:020a4e00008026
:020a4f00008025
:020a5000008024
:020a5100008023
:020a5200008022
:020a5300008021
:020a5400008020
:020a550000801f
:020a560000801e
:020a570000801d
:020a580000801c
:020a590000801b
:020a5a0000801a
:020a5b00008019
:020a5c00008117
:020a5d00008116
:020a5e00008115
:020a5f00008114
:020a6000008113
:020a6100008112
:020a6200008111
:020a6300008110
:020a640000810f
:020a650000810e
:020a660000810d
:020a670000810c
:020a680000810b
:020a690000810a
:020a6a00008109
:020a6b00008108
:020a6c00008107
:020a6d00008106
:020a6e00008105
:020a6f00008104
:020a7000008103
:020a7100008201
:020a7200008200
:020a73000082ff
:020a74000082fe
:020a75000082fd
:020a76000082fc
:020a77000082fb
:020a78000082fa
:020a79000082f9
:020a7a000082f8
:020a7b000082f7
:020a7c000082f6
:020a7d000082f5
:020a7e000082f4
:020a7f000082f3
:020a80000082f2
:020a81000082f1
:020a82000082f0
:020a83000082ef
:020a84000082ee
:020a85000082ed
:020a86000083eb
:020a87000083ea
:020a88000083e9
:020a89000083e8
:020a8a000083e7
:020a8b000083e6
:020a8c000083e5
:020a8d000083e4
:020a8e000083e3
:020a8f000083e2
:020a90000083e1
:020a91000083e0
:020a92000083df
:020a93000083de
:020a94000083dd
:020a95000083dc
:020a96000083db
:020a97000083da
:020a98000083d9
:020a99000083d8
:020a9a000083d7
:020a9b000084d5
:020a9c000084d4
:020a9d000084d3
:020a9e000084d2
:020a9f000084d1
:020aa0000084d0
:020aa1000084cf
:020aa2000084ce
:020aa3000084cd
:020aa4000084cc
:020aa5000084cb
:020aa6000084ca
:020aa7000084c9
:020aa8000084c8
:020aa9000084c7
:020aaa000084c6
:020aab000084c5
:020aac000084c4
:020aad000084c3
:020aae000084c2
:020aaf000084c1
:020ab0000085bf
:020ab1000085be
:020ab2000085bd
:020ab3000085bc
:020ab4000085bb
:020ab5000085ba
:020ab6000085b9
:020ab7000085b8
:020ab8000085b7
:020ab9000085b6
:020aba000085b5
:020abb000085b4
:020abc000085b3
:020abd000085b2
:020abe000085b1
:020abf000085b0
:020ac0000085af
:020ac1000085ae
:020ac2000085ad
:020ac3000085ac
:020ac4000085ab
:020ac5000086a9
:020ac6000086a8
:020ac7000086a7
:020ac8000086a6
:020ac9000086a5
:020aca000086a4
:020acb000086a3
:020acc000086a2
:020acd000086a1
:020ace000086a0
:020acf0000869f
:020ad00000869e
:020ad10000869d
:020ad20000869c
:020ad30000869b
:020ad40000869a
:020ad500008699
:020ad600008698
:020ad700008697
:020ad800008696
:020ad900008695
:020ada00008694
:020adb00008792
:020adc00008791
:020add00008790
:020ade0000878f
:020adf0000878e
:020ae00000878d
:020ae10000878c
:020ae20000878b
:020ae30000878a
:020ae400008789
:020ae500008788
:020ae600008787
:020ae700008786
:020ae800008785
:020ae900008784
:020aea00008783
:020aeb00008782
:020aec00008781
:020aed00008780
:020aee0000877f
:020aef0000877e
:020af00000887c
:020af10000887b
:020af20000887a
:020af300008879
:020af400008878
:020af500008877
:020af600008876
:020af700008875
:020af800008874
:020af900008873
:020afa00008872
:020afb00008871
:020afc00008870
:020afd0000886f
:020afe0000886e
:020aff0000886d
:020b000000886b
:020b010000886a
:020b0200008869
:020b0300008868
:020b0400008867
:020b0500008965
:020b0600008964
:020b0700008963
:020b0800008962
:020b0900008961
:020b0a00008960
:020b0b0000895f
:020b0c0000895e
:020b0d0000895d
:020b0e0000895c
:020b0f0000895b
:020b100000895a
:020b1100008959
:020b1200008958
:020b1300008957
:020b1400008956
:020b1500008955
:020b1600008954
:020b1700008953
:020b1800008952
:020b1900008951
:020b1a00008a4f
:020b1b00008a4e
:020b1c00008a4d
:020b1d00008a4c
:020b1e00008a4b
:020b1f00008a4a
:020b2000008a49
:020b2100008a48
:020b2200008a47
:020b2300008a46
:020b2400008a45
:020b2500008a44
:020b2600008a43
:020b2700008a42
:020b2800008a41
:020b2900008a40
:020b2a00008a3f
:020b2b00008a3e
:020b2c00008a3d
:020b2d00008a3c
:020b2e00008a3b
:020b2f00008b39
:020b3000008b38
:020b3100008b37
:020b3200008b36
:020b3300008b35
:020b3400008b34
:020b3500008b33
:020b3600008b32
:020b3700008b31
:020b3800008b30
:020b3900008b2f
:020b3a00008b2e
:020b3b00008b2d
:020b3c00008b2c
:020b3d00008b2b
:020b3e00008b2a
:020b3f00008b29
:020b4000008b28
:020b4100008b27
:020b4200008b26
:020b4300008b25
:020b4400008b24
:020b4500008c22
:020b4600008c21
:020b4700008c20
:020b4800008c1f
:020b4900008c1e
:020b4a00008c1d
:020b4b00008c1c
:020b4c00008c1b
:020b4d00008c1a
:020b4e00008c19
:020b4f00008c18
:020b5000008c17
:020b5100008c16
:020b5200008c15
:020b5300008c14
:020b5400008c13
:020b5500008c12
:020b5600008c11
:020b5700008c10
:020b5800008c0f
:020b5900008c0e
:020b5a00008d0c
:020b5b00008d0b
:020b5c00008d0a
:020b5d00008d09
:020b5e00008d08
:020b5f00008d07
:020b6000008d06
:020b6100008d05
:020b6200008d04
:020b6300008d03
:020b6400008d02
:020b6500008d01
:020b6600008d00
:020b6700008dff
:020b6800008dfe
:020b6900008dfd
:020b6a00008dfc
:020b6b00008dfb
:020b6c00008dfa
:020b6d00008df9
:020b6e00008df8
:020b6f00008ef6
:020b7000008ef5
:020b7100008ef4
:020b7200008ef3
:020b7300008ef2
:020b7400008ef1
:020b7500008ef0
:020b7600008eef
:020b7700008eee
:020b7800008eed
:020b7900008eec
:020b7a00008eeb
:020b7b00008eea
:020b7c00008ee9
:020b7d00008ee8
:020b7e00008ee7
:020b7f00008ee6
:020b8000008ee5
:020b8100008ee4
:020b8200008ee3
:020b8300008ee2
:020b8400008fe0
:020b8500008fdf
:020b8600008fde
:020b8700008fdd
:020b8800008fdc
:020b8900008fdb
:020b8a00008fda
:020b8b00008fd9
:020b8c00008fd8
:020b8d00008fd7
:020b8e00008fd6
:020b8f00008fd5
:020b9000008fd4
:020b9100008fd3
:020b9200008fd2
:020b9300008fd1
:020b9400008fd0
:020b9500008fcf
:020b9600008fce
:020b9700008fcd
:020b9800008fcc
:020b9900008fcb
:020b9a000090c9
:020b9b000090c8
:020b9c000090c7
:020b9d000090c6
:020b9e000090c5
:020b9f000090c4
:020ba0000090c3
:020ba1000090c2
:020ba2000090c1
:020ba3000090c0
:020ba4000090bf
:020ba5000090be
:020ba6000090bd
:020ba7000090bc
:020ba8000090bb
:020ba9000090ba
:020baa000090b9
:020bab000090b8
:020bac000090b7
:020bad000090b6
:020bae000090b5
:020baf000091b3
:020bb0000091b2
:020bb1000091b1
:020bb2000091b0
:020bb3000091af
:020bb4000091ae
:020bb5000091ad
:020bb6000091ac
:020bb7000091ab
:020bb8000091aa
:020bb9000091a9
:020bba000091a8
:020bbb000091a7
:020bbc000091a6
:020bbd000091a5
:020bbe000091a4
:020bbf000091a3
:020bc0000091a2
:020bc1000091a1
:020bc2000091a0
:020bc30000919f
:020bc40000929d
:020bc50000929c
:020bc60000929b
:020bc70000929a
:020bc800009299
:020bc900009298
:020bca00009297
:020bcb00009296
:020bcc00009295
:020bcd00009294
:020bce00009293
:020bcf00009292
:020bd000009291
:020bd100009290
:020bd20000928f
:020bd30000928e
:020bd40000928d
:020bd50000928c
:020bd60000928b
:020bd70000928a
:020bd800009289
:020bd900009387
:020bda00009386
:020bdb00009385
:020bdc00009384
:020bdd00009383
:020bde00009382
:020bdf00009381
:020be000009380
:020be10000937f
:020be20000937e
:020be30000937d
:020be40000937c
:020be50000937b
:020be60000937a
:020be700009379
:020be800009378
:020be900009377
:020bea00009376
:020beb00009375
:020bec00009374
:020bed00009373
:020bee00009372
:020bef00009470
:020bf00000946f
:020bf10000946e
:020bf20000946d
:020bf30000946c
:020bf40000946b
:020bf50000946a
:020bf600009469
:020bf700009468
:020bf800009467
:020bf900009466
:020bfa00009465
:020bfb00009464
:020bfc00009463
:020bfd00009462
:020bfe00009461
:020bff00009460
:020c000000945e
:020c010000945d
:020c020000945c
:020c030000945b
:020c0400009559
:020c0500009558
:020c0600009557
:020c0700009556
:020c0800009555
:020c0900009554
:020c0a00009553
:020c0b00009552
:020c0c00009551
:020c0d00009550
:020c0e0000954f
:020c0f0000954e
:020c100000954d
:020c110000954c
:020c120000954b
:020c130000954a
:020c1400009549
:020c1500009548
:020c1600009547
:020c1700009546
:020c1800009545
:020c1900009643
:020c1a00009642
:020c1b00009641
:020c1c00009640
:020c1d0000963f
:020c1e0000963e
:020c1f0000963d
:020c200000963c
:020c210000963b
:020c220000963a
:020c2300009639
:020c2400009638
:020c2500009637
:020c2600009636
:020c2700009635
:020c2800009634
:020c2900009633
:020c2a00009632
:020c2b00009631
:020c2c00009630
:020c2d0000962f
:020c2e0000962e
:020c2f0000972c
:020c300000972b
:020c310000972a
:020c3200009729
:020c3300009728
:020c3400009727
:020c3500009726
:020c3600009725
:020c3700009724
:020c3800009723
:020c3900009722
:020c3a00009721
:020c3b00009720
:020c3c0000971f
:020c3d0000971e
:020c3e0000971d
:020c3f0000971c
:020c400000971b
:020c410000971a
:020c4200009719
:020c4300009718
:020c4400009816
:020c4500009815
:020c4600009814
:020c4700009813
:020c4800009812
:020c4900009811
:020c4a00009810
:020c4b0000980f
:020c4c0000980e
:020c4d0000980d
:020c4e0000980c
:020c4f0000980b
:020c500000980a
:020c5100009809
:020c5200009808
:020c5300009807
:020c5400009806
:020c5500009805
:020c5600009804
:020c5700009803
:020c5800009802
:020c5900009900
:020c5a000099ff
:020c5b000099fe
:020c5c000099fd
:020c5d000099fc
:020c5e000099fb
:020c5f000099fa
:020c60000099f9
:020c61000099f8
:020c62000099f7
:020c63000099f6
:020c64000099f5
:020c65000099f4
:020c66000099f3
:020c67000099f2
:020c68000099f1
:020c69000099f0
:020c6a000099ef
:020c6b000099ee
:020c6c000099ed
:020c6d000099ec
:020c6e000099eb
:020c6f00009ae9
:020c7000009ae8
:020c7100009ae7
:020c7200009ae6
:020c7300009ae5
:020c7400009ae4
:020c7500009ae3
:020c7600009ae2
:020c7700009ae1
:020c7800009ae0
:020c7900009adf
:020c7a00009ade
:020c7b00009add
:020c7c00009adc
:020c7d00009adb
:020c7e00009ada
:020c7f00009ad9
:020c8000009ad8
:020c8100009ad7
:020c8200009ad6
:020c8300009ad5
:020c8400009bd3
:020c8500009bd2
:020c8600009bd1
:020c8700009bd0
:020c8800009bcf
:020c8900009bce
:020c8a00009bcd
:020c8b00009bcc
:020c8c00009bcb
:020c8d00009bca
:020c8e00009bc9
:020c8f00009bc8
:020c9000009bc7
:020c9100009bc6
:020c9200009bc5
:020c9300009bc4
:020c9400009bc3
:020c9500009bc2
:020c9600009bc1
:020c9700009bc0
:020c9800009bbf
:020c9900009bbe
:020c9a00009cbc
:020c9b00009cbb
:020c9c00009cba
:020c9d00009cb9
:020c9e00009cb8
:020c9f00009cb7
:020ca000009cb6
:020ca100009cb5
:020ca200009cb4
:020ca300009cb3
:020ca400009cb2
:020ca500009cb1
:020ca600009cb0
:020ca700009caf
:020ca800009cae
:020ca900009cad
:020caa00009cac
:020cab00009cab
:020cac00009caa
:020cad00009ca9
:020cae00009ca8
:020caf00009da6
:020cb000009da5
:020cb100009da4
:020cb200009da3
:020cb300009da2
:020cb400009da1
:020cb500009da0
:020cb600009d9f
:020cb700009d9e
:020cb800009d9d
:020cb900009d9c
:020cba00009d9b
:020cbb00009d9a
:020cbc00009d99
:020cbd00009d98
:020cbe00009d97
:020cbf00009d96
:020cc000009d95
:020cc100009d94
:020cc200009d93
:020cc300009d92
:020cc400009d91
:020cc500009e8f
:020cc600009e8e
:020cc700009e8d
:020cc800009e8c
:020cc900009e8b
:020cca00009e8a
:020ccb00009e89
:020ccc00009e88
:020ccd00009e87
:020cce00009e86
:020ccf00009e85
:020cd000009e84
:020cd100009e83
:020cd200009e82
:020cd300009e81
:020cd400009e80
:020cd500009e7f
:020cd600009e7e
:020cd700009e7d
:020cd800009e7c
:020cd900009e7b
:020cda00009f79
:020cdb00009f78
:020cdc00009f77
:020cdd00009f76
:020cde00009f75
:020cdf00009f74
:020ce000009f73
:020ce100009f72
:020ce200009f71
:020ce300009f70
:020ce400009f6f
:020ce500009f6e
:020ce600009f6d
:020ce700009f6c
:020ce800009f6b
:020ce900009f6a
:020cea00009f69
:020ceb00009f68
:020cec00009f67
:020ced00009f66
:020cee00009f65
:020cef0000a063
:020cf00000a062
:020cf10000a061
:020cf20000a060
:020cf30000a05f
:020cf40000a05e
:020cf50000a05d
:020cf60000a05c
:020cf70000a05b
:020cf80000a05a
:020cf90000a059
:020cfa0000a058
:020cfb0000a057
:020cfc0000a056
:020cfd0000a055
:020cfe0000a054
:020cff0000a053
:020d000000a051
:020d010000a050
:020d020000a04f
:020d030000a04e
:020d040000a04d
:020d050000a14b
:020d060000a14a
:020d070000a149
:020d080000a148
:020d090000a147
:020d0a0000a146
:020d0b0000a145
:020d0c0000a144
:020d0d0000a143
:020d0e0000a142
:020d0f0000a141
:020d100000a140
:020d110000a13f
:020d120000a13e
:020d130000a13d
:020d140000a13c
:020d150000a13b
:020d160000a13a
:020d170000a139
:020d180000a138
:020d190000a137
:020d1a0000a235
:020d1b0000a234
:020d1c0000a233
:020d1d0000a232
:020d1e0000a231
:020d1f0000a230
:020d200000a22f
:020d210000a22e
:020d220000a22d
:020d230000a22c
:020d240000a22b
:020d250000a22a
:020d260000a229
:020d270000a228
:020d280000a227
:020d290000a226
:020d2a0000a225
:020d2b0000a224
:020d2c0000a223
:020d2d0000a222
:020d2e0000a221
:020d2f0000a220
:020d300000a31e
:020d310000a31d
:020d320000a31c
:020d330000a31b
:020d340000a31a
:020d350000a319
:020d360000a318
:020d370000a317
:020d380000a316
:020d390000a315
:020d3a0000a314
:020d3b0000a313
:020d3c0000a312
:020d3d0000a311
:020d3e0000a310
:020d3f0000a30f
:020d400000a30e
:020d410000a30d
:020d420000a30c
:020d430000a30b
:020d440000a30a
:020d450000a309
:020d460000a407
:020d470000a406
:020d480000a405
:020d490000a404
:020d4a0000a403
:020d4b0000a402
:020d4c0000a401
:020d4d0000a400
:020d4e0000a4ff
:020d4f0000a4fe
:020d500000a4fd
:020d510000a4fc
:020d520000a4fb
:020d530000a4fa
:020d540000a4f9
:020d550000a4f8
:020d560000a4f7
:020d570000a4f6
:020d580000a4f5
:020d590000a4f4
:020d5a0000a4f3
:020d5b0000a5f1
:020d5c0000a5f0
:020d5d0000a5ef
:020d5e0000a5ee
:020d5f0000a5ed
:020d600000a5ec
:020d610000a5eb
:020d620000a5ea
:020d630000a5e9
:020d640000a5e8
:020d650000a5e7
:020d660000a5e6
:020d670000a5e5
:020d680000a5e4
:020d690000a5e3
:020d6a0000a5e2
:020d6b0000a5e1
:020d6c0000a5e0
:020d6d0000a5df
:020d6e0000a5de
:020d6f0000a5dd
:020d700000a5dc
:020d710000a6da
:020d720000a6d9
:020d730000a6d8
:020d740000a6d7
:020d750000a6d6
:020d760000a6d5
:020d770000a6d4
:020d780000a6d3
:020d790000a6d2
:020d7a0000a6d1
:020d7b0000a6d0
:020d7c0000a6cf
:020d7d0000a6ce
:020d7e0000a6cd
:020d7f0000a6cc
:020d800000a6cb
:020d810000a6ca
:020d820000a6c9
:020d830000a6c8
:020d840000a6c7
:020d850000a6c6
:020d860000a7c4
:020d870000a7c3
:020d880000a7c2
:020d890000a7c1
:020d8a0000a7c0
:020d8b0000a7bf
:020d8c0000a7be
:020d8d0000a7bd
:020d8e0000a7bc
:020d8f0000a7bb
:020d900000a7ba
:020d910000a7b9
:020d920000a7b8
:020d930000a7b7
:020d940000a7b6
:020d950000a7b5
:020d960000a7b4
:020d970000a7b3
:020d980000a7b2
:020d990000a7b1
:020d9a0000a7b0
:020d9b0000a7af
:020d9c0000a8ad
:020d9d0000a8ac
:020d9e0000a8ab
:020d9f0000a8aa
:020da00000a8a9
:020da10000a8a8
:020da20000a8a7
:020da30000a8a6
:020da40000a8a5
:020da50000a8a4
:020da60000a8a3
:020da70000a8a2
:020da80000a8a1
:020da90000a8a0
:020daa0000a89f
:020dab0000a89e
:020dac0000a89d
:020dad0000a89c
:020dae0000a89b
:020daf0000a89a
:020db00000a899
:020db10000a997
:020db20000a996
:020db30000a995
:020db40000a994
:020db50000a993
:020db60000a992
:020db70000a991
:020db80000a990
:020db90000a98f
:020dba0000a98e
:020dbb0000a98d
:020dbc0000a98c
:020dbd0000a98b
:020dbe0000a98a
:020dbf0000a989
:020dc00000a988
:020dc10000a987
:020dc20000a986
:020dc30000a985
:020dc40000a984
:020dc50000a983
:020dc60000a982
:020dc70000aa80
:020dc80000aa7f
:020dc90000aa7e
:020dca0000aa7d
:020dcb0000aa7c
:020dcc0000aa7b
:020dcd0000aa7a
:020dce0000aa79
:020dcf0000aa78
:020dd00000aa77
:020dd10000aa76
:020dd20000aa75
:020dd30000aa74
:020dd40000aa73
:020dd50000aa72
:020dd60000aa71
:020dd70000aa70
:020dd80000aa6f
:020dd90000aa6e
:020dda0000aa6d
:020ddb0000aa6c
:020ddc0000aa6b
:020ddd0000ab69
:020dde0000ab68
:020ddf0000ab67
:020de00000ab66
:020de10000ab65
:020de20000ab64
:020de30000ab63
:020de40000ab62
:020de50000ab61
:020de60000ab60
:020de70000ab5f
:020de80000ab5e
:020de90000ab5d
:020dea0000ab5c
:020deb0000ab5b
:020dec0000ab5a
:020ded0000ab59
:020dee0000ab58
:020def0000ab57
:020df00000ab56
:020df10000ab55
:020df20000ac53
:020df30000ac52
:020df40000ac51
:020df50000ac50
:020df60000ac4f
:020df70000ac4e
:020df80000ac4d
:020df90000ac4c
:020dfa0000ac4b
:020dfb0000ac4a
:020dfc0000ac49
:020dfd0000ac48
:020dfe0000ac47
:020dff0000ac46
:020e000000ac44
:020e010000ac43
:020e020000ac42
:020e030000ac41
:020e040000ac40
:020e050000ac3f
:020e060000ac3e
:020e070000ac3d
:020e080000ad3b
:020e090000ad3a
:020e0a0000ad39
:020e0b0000ad38
:020e0c0000ad37
:020e0d0000ad36
:020e0e0000ad35
:020e0f0000ad34
:020e100000ad33
:020e110000ad32
:020e120000ad31
:020e130000ad30
:020e140000ad2f
:020e150000ad2e
:020e160000ad2d
:020e170000ad2c
:020e180000ad2b
:020e190000ad2a
:020e1a0000ad29
:020e1b0000ad28
:020e1c0000ad27
:020e1d0000ad26
:020e1e0000ae24
:020e1f0000ae23
:020e200000ae22
:020e210000ae21
:020e220000ae20
:020e230000ae1f
:020e240000ae1e
:020e250000ae1d
:020e260000ae1c
:020e270000ae1b
:020e280000ae1a
:020e290000ae19
:020e2a0000ae18
:020e2b0000ae17
:020e2c0000ae16
:020e2d0000ae15
:020e2e0000ae14
:020e2f0000ae13
:020e300000ae12
:020e310000ae11
:020e320000ae10
:020e330000af0e
:020e340000af0d
:020e350000af0c
:020e360000af0b
:020e370000af0a
:020e380000af09
:020e390000af08
:020e3a0000af07
:020e3b0000af06
:020e3c0000af05
:020e3d0000af04
:020e3e0000af03
:020e3f0000af02
:020e400000af01
:020e410000af00
:020e420000afff
:020e430000affe
:020e440000affd
:020e450000affc
:020e460000affb
:020e470000affa
:020e480000aff9
:020e490000b0f7
:020e4a0000b0f6
:020e4b0000b0f5
:020e4c0000b0f4
:020e4d0000b0f3
:020e4e0000b0f2
:020e4f0000b0f1
:020e500000b0f0
:020e510000b0ef
:020e520000b0ee
:020e530000b0ed
:020e540000b0ec
:020e550000b0eb
:020e560000b0ea
:020e570000b0e9
:020e580000b0e8
:020e590000b0e7
:020e5a0000b0e6
:020e5b0000b0e5
:020e5c0000b0e4
:020e5d0000b0e3
:020e5e0000b0e2
:020e5f0000b1e0
:020e600000b1df
:020e610000b1de
:020e620000b1dd
:020e630000b1dc
:020e640000b1db
:020e650000b1da
:020e660000b1d9
:020e670000b1d8
:020e680000b1d7
:020e690000b1d6
:020e6a0000b1d5
:020e6b0000b1d4
:020e6c0000b1d3
:020e6d0000b1d2
:020e6e0000b1d1
:020e6f0000b1d0
:020e700000b1cf
:020e710000b1ce
:020e720000b1cd
:020e730000b1cc
:020e740000b1cb
:020e750000b2c9
:020e760000b2c8
:020e770000b2c7
:020e780000b2c6
:020e790000b2c5
:020e7a0000b2c4
:020e7b0000b2c3
:020e7c0000b2c2
:020e7d0000b2c1
:020e7e0000b2c0
:020e7f0000b2bf
:020e800000b2be
:020e810000b2bd
:020e820000b2bc
:020e830000b2bb
:020e840000b2ba
:020e850000b2b9
:020e860000b2b8
:020e870000b2b7
:020e880000b2b6
:020e890000b2b5
:020e8a0000b3b3
:020e8b0000b3b2
:020e8c0000b3b1
:020e8d0000b3b0
:020e8e0000b3af
:020e8f0000b3ae
:020e900000b3ad
:020e910000b3ac
:020e920000b3ab
:020e930000b3aa
:020e940000b3a9
:020e950000b3a8
:020e960000b3a7
:020e970000b3a6
:020e980000b3a5
:020e990000b3a4
:020e9a0000b3a3
:020e9b0000b3a2
:020e9c0000b3a1
:020e9d0000b3a0
:020e9e0000b39f
:020e9f0000b39e
:020ea00000b49c
:020ea10000b49b
:020ea20000b49a
:020ea30000b499
:020ea40000b498
:020ea50000b497
:020ea60000b496
:020ea70000b495
:020ea80000b494
:020ea90000b493
:020eaa0000b492
:020eab0000b491
:020eac0000b490
:020ead0000b48f
:020eae0000b48e
:020eaf0000b48d
:020eb00000b48c
:020eb10000b48b
:020eb20000b48a
:020eb30000b489
:020eb40000b488
:020eb50000b487
:020eb60000b585
:020eb70000b584
:020eb80000b583
:020eb90000b582
:020eba0000b581
:020ebb0000b580
:020ebc0000b57f
:020ebd0000b57e
:020ebe0000b57d
:020ebf0000b57c
:020ec00000b57b
:020ec10000b57a
:020ec20000b579
:020ec30000b578
:020ec40000b577
:020ec50000b576
:020ec60000b575
:020ec70000b574
:020ec80000b573
:020ec90000b572
:020eca0000b571
:020ecb0000b570
:020ecc0000b66e
:020ecd0000b66d
:020ece0000b66c
:020ecf0000b66b
:020ed00000b66a
:020ed10000b669
:020ed20000b668
:020ed30000b667
:020ed40000b666
:020ed50000b665
:020ed60000b664
:020ed70000b663
:020ed80000b662
:020ed90000b661
:020eda0000b660
:020edb0000b65f
:020edc0000b65e
:020edd0000b65d
:020ede0000b65c
:020edf0000b65b
:020ee00000b65a
:020ee10000b659
:020ee20000b757
:020ee30000b756
:020ee40000b755
:020ee50000b754
:020ee60000b753
:020ee70000b752
:020ee80000b751
:020ee90000b750
:020eea0000b74f
:020eeb0000b74e
:020eec0000b74d
:020eed0000b74c
:020eee0000b74b
:020eef0000b74a
:020ef00000b749
:020ef10000b748
:020ef20000b747
:020ef30000b746
:020ef40000b745
:020ef50000b744
:020ef60000b743
:020ef70000b742
:020ef80000b840
:020ef90000b83f
:020efa0000b83e
:020efb0000b83d
:020efc0000b83c
:020efd0000b83b
:020efe0000b83a
:020eff0000b839
:020f000000b837
:020f010000b836
:020f020000b835
:020f030000b834
:020f040000b833
:020f050000b832
:020f060000b831
:020f070000b830
:020f080000b82f
:020f090000b82e
:020f0a0000b82d
:020f0b0000b82c
:020f0c0000b82b
:020f0d0000b929
:020f0e0000b928
:020f0f0000b927
:020f100000b926
:020f110000b925
:020f120000b924
:020f130000b923
:020f140000b922
:020f150000b921
:020f160000b920
:020f170000b91f
:020f180000b91e
:020f190000b91d
:020f1a0000b91c
:020f1b0000b91b
:020f1c0000b91a
:020f1d0000b919
:020f1e0000b918
:020f1f0000b917
:020f200000b916
:020f210000b915
:020f220000b914
:020f230000ba12
:020f240000ba11
:020f250000ba10
:020f260000ba0f
:020f270000ba0e
:020f280000ba0d
:020f290000ba0c
:020f2a0000ba0b
:020f2b0000ba0a
:020f2c0000ba09
:020f2d0000ba08
:020f2e0000ba07
:020f2f0000ba06
:020f300000ba05
:020f310000ba04
:020f320000ba03
:020f330000ba02
:020f340000ba01
:020f350000ba00
:020f360000baff
:020f370000bafe
:020f380000bafd
:020f390000bbfb
:020f3a0000bbfa
:020f3b0000bbf9
:020f3c0000bbf8
:020f3d0000bbf7
:020f3e0000bbf6
:020f3f0000bbf5
:020f400000bbf4
:020f410000bbf3
:020f420000bbf2
:020f430000bbf1
:020f440000bbf0
:020f450000bbef
:020f460000bbee
:020f470000bbed
:020f480000bbec
:020f490000bbeb
:020f4a0000bbea
:020f4b0000bbe9
:020f4c0000bbe8
:020f4d0000bbe7
:020f4e0000bbe6
:020f4f0000bce4
:020f500000bce3
:020f510000bce2
:020f520000bce1
:020f530000bce0
:020f540000bcdf
:020f550000bcde
:020f560000bcdd
:020f570000bcdc
:020f580000bcdb
:020f590000bcda
:020f5a0000bcd9
:020f5b0000bcd8
:020f5c0000bcd7
:020f5d0000bcd6
:020f5e0000bcd5
:020f5f0000bcd4
:020f600000bcd3
:020f610000bcd2
:020f620000bcd1
:020f630000bcd0
:020f640000bccf
:020f650000bdcd
:020f660000bdcc
:020f670000bdcb
:020f680000bdca
:020f690000bdc9
:020f6a0000bdc8
:020f6b0000bdc7
:020f6c0000bdc6
:020f6d0000bdc5
:020f6e0000bdc4
:020f6f0000bdc3
:020f700000bdc2
:020f710000bdc1
:020f720000bdc0
:020f730000bdbf
:020f740000bdbe
:020f750000bdbd
:020f760000bdbc
:020f770000bdbb
:020f780000bdba
:020f790000bdb9
:020f7a0000bdb8
:020f7b0000beb6
:020f7c0000beb5
:020f7d0000beb4
:020f7e0000beb3
:020f7f0000beb2
:020f800000beb1
:020f810000beb0
:020f820000beaf
:020f830000beae
:020f840000bead
:020f850000beac
:020f860000beab
:020f870000beaa
:020f880000bea9
:020f890000bea8
:020f8a0000bea7
:020f8b0000bea6
:020f8c0000bea5
:020f8d0000bea4
:020f8e0000bea3
:020f8f0000bea2
:020f900000bea1
:020f910000bf9f
:020f920000bf9e
:020f930000bf9d
:020f940000bf9c
:020f950000bf9b
:020f960000bf9a
:020f970000bf99
:020f980000bf98
:020f990000bf97
:020f9a0000bf96
:020f9b0000bf95
:020f9c0000bf94
:020f9d0000bf93
:020f9e0000bf92
:020f9f0000bf91
