:020000000000fe
:02000100000df0
:020002000019e3
:020003000026d5
:020004000032c8
:02000500003fba
:02000600004bad
:020007000057a0
:02000800006492
:02000900007085
:02000a00007c78
:02000b0000886b
:02000c0000945e
:02000d0000a051
:02000e0000ac44
:02000f0000b837
:0200100000c42a
:0200110000cf1e
:0200120000da12
:0200130000e605
:0200140000f1f9
:0200150000fced
:020016000107e0
:020017000111d5
:02001800011cc9
:020019000126be
:02001a000130b3
:02001b00013aa8
:02001c0001449d
:02001d00014e92
:02001e00015788
:02001f0001607e
:02002000016974
:0200210001726a
:02002200017b60
:02002300018357
:02002400018b4e
:02002500019345
:02002600019a3d
:0200270001a234
:0200280001a92c
:0200290001b024
:02002a0001b61d
:02002b0001bd15
:02002c0001c30e
:02002d0001c808
:02002e0001ce01
:02002f0001d3fb
:0200300001d8f5
:0200310001ddef
:0200320001e1ea
:0200330001e5e5
:0200340001e9e0
:0200350001ecdc
:0200360001f0d7
:0200370001f3d3
:0200380001f5d0
:0200390001f7cd
:02003a0001f9ca
:02003b0001fbc7
:02003c0001fdc4
:02003d0001fec2
:02003e0001fec1
:02003f0001ffbf
:0200400001ffbe
:0200410001ffbd
:0200420001febd
:0200430001febc
:0200440001fdbc
:0200450001fbbd
:0200460001f9be
:0200470001f7bf
:0200480001f5c0
:0200490001f3c1
:02004a0001f0c3
:02004b0001ecc6
:02004c0001e9c8
:02004d0001e5cb
:02004e0001e1ce
:02004f0001ddd1
:0200500001d8d5
:0200510001d3d9
:0200520001cedd
:0200530001c8e2
:0200540001c3e6
:0200550001bdeb
:0200560001b6f1
:0200570001b0f6
:0200580001a9fc
:0200590001a202
:02005a00019a09
:02005b0001930f
:02005c00018b16
:02005d0001831d
:02005e00017b24
:02005f0001722c
:02006000016934
:0200610001603c
:02006200015744
:02006300014e4c
:02006400014455
:02006500013a5e
:02006600013067
:02006700012670
:02006800011c79
:02006900011183
:02006a0001078c
:02006b0000fc97
:02006c0000f1a1
:02006d0000e6ab
:02006e0000dab6
:02006f0000cfc0
:0200700000c4ca
:0200710000b8d5
:0200720000ace0
:0200730000a0eb
:020074000094f6
:02007500008801
:02007600007c0c
:02007700007017
:02007800006422
:0200790000572e
:02007a00004b39
:02007b00003f44
:02007c00003250
:02007d0000265b
:02007e00001967
:02007f00000d72
:0200800000007e
:0200810003f387
:0200820003e792
:0200830003da9e
:0200840003cea9
:0200850003c1b5
:0200860003b5c0
:0200870003a9cb
:02008800039cd7
:020089000390e2
:02008a000384ed
:02008b000378f8
:02008c00036c03
:02008d0003600e
:02008e00035419
:02008f00034824
:02009000033c2f
:02009100033139
:02009200032643
:02009300031a4e
:02009400030f58
:02009500030462
:0200960002f96d
:0200970002ef76
:0200980002e480
:0200990002da89
:02009a0002d092
:02009b0002c69b
:02009c0002bca4
:02009d0002b2ad
:02009e0002a9b5
:02009f0002a0bd
:0200a0000297c5
:0200a100028ecd
:0200a2000285d5
:0200a300027ddc
:0200a4000275e3
:0200a500026dea
:0200a6000266f0
:0200a700025ef7
:0200a8000257fd
:0200a900025003
:0200aa00024a08
:0200ab0002430e
:0200ac00023d13
:0200ad00023817
:0200ae0002321c
:0200af00022d20
:0200b000022824
:0200b100022328
:0200b200021f2b
:0200b300021b2e
:0200b400021731
:0200b500021433
:0200b600021036
:0200b700020d38
:0200b800020b39
:0200b90002093a
:0200ba0002073b
:0200bb0002053c
:0200bc0002033d
:0200bd0002023d
:0200be0002023c
:0200bf0002013c
:0200c00002013b
:0200c10002013a
:0200c200020238
:0200c300020237
:0200c400020335
:0200c500020532
:0200c60002072f
:0200c70002092c
:0200c800020b29
:0200c900020d26
:0200ca00021022
:0200cb0002141d
:0200cc00021719
:0200cd00021b14
:0200ce00021f0f
:0200cf0002230a
:0200d000022804
:0200d100022dfe
:0200d2000232f8
:0200d3000238f1
:0200d400023deb
:0200d5000243e4
:0200d600024adc
:0200d7000250d5
:0200d8000257cd
:0200d900025ec5
:0200da000266bc
:0200db00026db4
:0200dc000275ab
:0200dd00027da2
:0200de00028599
:0200df00028e8f
:0200e000029785
:0200e10002a07b
:0200e20002a971
:0200e30002b267
:0200e40002bc5c
:0200e50002c651
:0200e60002d046
:0200e70002da3b
:0200e80002e430
:0200e90002ef24
:0200ea0002f919
:0200eb0003040c
:0200ec00030f00
:0200ed00031af4
:0200ee000326e7
:0200ef000331db
:0200f000033ccf
:0200f1000348c2
:0200f2000354b5
:0200f3000360a8
:0200f400036c9b
:0200f50003788e
:0200f600038481
:0200f700039074
:0200f800039c67
:0200f90003a959
:0200fa0003b54c
:0200fb0003c13f
:0200fc0003ce31
:0200fd0003da24
:0200fe0003e716
:0200ff0003f309
:00000001FF
