:0200000001fffe
:0200010001fffd
:0200020001fffc
:0200030001fffb
:0200040001fffa
:0200050001fff9
:0200060001fff8
:0200070001fff7
:0200080001fff6
:0200090001fff5
:02000a0001fff4
:02000b0001fff3
:02000c0001fff2
:02000d0001fff1
:02000e0001fff0
:02000f0001ffef
:0200100001ffee
:0200110001ffed
:0200120001ffec
:0200130001ffeb
:0200140001ffea
:0200150001ffe9
:0200160001ffe8
:0200170001ffe7
:0200180001ffe6
:0200190001ffe5
:02001a0001ffe4
:02001b0001ffe3
:02001c0001ffe2
:02001d0001ffe1
:02001e0001ffe0
:02001f0001ffdf
:0200200001ffde
:0200210001ffdd
:0200220001ffdc
:0200230001ffdb
:0200240001ffda
:0200250001ffd9
:0200260001ffd8
:0200270001ffd7
:0200280001ffd6
:0200290001ffd5
:02002a0001ffd4
:02002b0001ffd3
:02002c0001ffd2
:02002d0001ffd1
:02002e0001ffd0
:02002f0001ffcf
:0200300001ffce
:0200310001ffcd
:0200320001ffcc
:0200330001ffcb
:0200340001ffca
:0200350001ffc9
:0200360001ffc8
:0200370001ffc7
:0200380001ffc6
:0200390001ffc5
:02003a0001ffc4
:02003b0001ffc3
:02003c0001ffc2
:02003d0001ffc1
:02003e0001ffc0
:02003f0001ffbf
:0200400001ffbe
:0200410001ffbd
:0200420001ffbc
:0200430001ffbb
:0200440001ffba
:0200450001ffb9
:0200460001ffb8
:0200470001ffb7
:0200480001ffb6
:0200490001ffb5
:02004a0001ffb4
:02004b0001ffb3
:02004c0001ffb2
:02004d0001ffb1
:02004e0001ffb0
:02004f0001ffaf
:0200500001ffae
:0200510001ffad
:0200520001ffac
:0200530001ffab
:0200540001ffaa
:0200550001ffa9
:0200560001ffa8
:0200570001ffa7
:0200580001ffa6
:0200590001ffa5
:02005a0001ffa4
:02005b0001ffa3
:02005c0001ffa2
:02005d0001ffa1
:02005e0001ffa0
:02005f0001ff9f
:0200600001ff9e
:0200610001ff9d
:0200620001ff9c
:0200630001ff9b
:0200640001ff9a
:0200650001ff99
:0200660001ff98
:0200670001ff97
:0200680001ff96
:0200690001ff95
:02006a0001ff94
:02006b0001ff93
:02006c0001ff92
:02006d0001ff91
:02006e0001ff90
:02006f0001ff8f
:0200700001ff8e
:0200710001ff8d
:0200720001ff8c
:0200730001ff8b
:0200740001ff8a
:0200750001ff89
:0200760001ff88
:0200770001ff87
:0200780001ff86
:0200790001ff85
:02007a0001ff84
:02007b0001ff83
:02007c0001ff82
:02007d0001ff81
:02007e0001ff80
:02007f0001ff7f
:0200800001ff7e
:0200810001ff7d
:0200820001ff7c
:0200830001ff7b
:0200840001ff7a
:0200850001ff79
:0200860001ff78
:0200870001ff77
:0200880001ff76
:0200890001ff75
:02008a0001ff74
:02008b0001ff73
:02008c0001ff72
:02008d0001ff71
:02008e0001ff70
:02008f0001ff6f
:0200900001ff6e
:0200910001ff6d
:0200920001ff6c
:0200930001ff6b
:0200940001ff6a
:0200950001ff69
:0200960001ff68
:0200970001ff67
:0200980001ff66
:0200990001ff65
:02009a0001ff64
:02009b0001ff63
:02009c0001ff62
:02009d0001ff61
:02009e0001ff60
:02009f0001ff5f
:0200a00001ff5e
:0200a10001ff5d
:0200a20001ff5c
:0200a30001ff5b
:0200a40001ff5a
:0200a50001ff59
:0200a60001ff58
:0200a70001ff57
:0200a80001ff56
:0200a90001ff55
:0200aa0001ff54
:0200ab0001ff53
:0200ac0001ff52
:0200ad0001ff51
:0200ae0001ff50
:0200af0001ff4f
:0200b00001ff4e
:0200b10001ff4d
:0200b20001ff4c
:0200b30001ff4b
:0200b40001ff4a
:0200b50001ff49
:0200b60001ff48
:0200b70001ff47
:0200b80001ff46
:0200b90001ff45
:0200ba0001ff44
:0200bb0001ff43
:0200bc0001ff42
:0200bd0001ff41
:0200be0001ff40
:0200bf0001ff3f
:0200c00001ff3e
:0200c10001ff3d
:0200c20001ff3c
:0200c30001ff3b
:0200c40001ff3a
:0200c50001ff39
:0200c60001ff38
:0200c70001ff37
:0200c80001ff36
:0200c90001ff35
:0200ca0001ff34
:0200cb0001ff33
:0200cc0001ff32
:0200cd0001ff31
:0200ce0001ff30
:0200cf0001ff2f
:0200d00001ff2e
:0200d10001ff2d
:0200d20001ff2c
:0200d30001ff2b
:0200d40001ff2a
:0200d50001ff29
:0200d60001ff28
:0200d70001ff27
:0200d80001ff26
:0200d90001ff25
:0200da0001ff24
:0200db0001ff23
:0200dc0001ff22
:0200dd0001ff21
:0200de0001ff20
:0200df0001ff1f
:0200e00001ff1e
:0200e10001ff1d
:0200e20001ff1c
:0200e30001ff1b
:0200e40001ff1a
:0200e50001ff19
:0200e60001ff18
:0200e70001ff17
:0200e80001ff16
:0200e90001ff15
:0200ea0001ff14
:0200eb0001ff13
:0200ec0001ff12
:0200ed0001ff11
:0200ee0001ff10
:0200ef0001ff0f
:0200f00001ff0e
:0200f10001ff0d
:0200f20001ff0c
:0200f30001ff0b
:0200f40001ff0a
:0200f50001ff09
:0200f60001ff08
:0200f70001ff07
:0200f80001ff06
:0200f90001ff05
:0200fa0001ff04
:0200fb0001ff03
:0200fc0001ff02
:0200fd0001ff01
:0200fe0001ff00
:0200ff0001ffff
:00000001FF
